:020000040800F2
:100000000080012079380008751100087711000878
:10001000791100087B1100087D1100080000000024
:100020000000000000000000000000007F11000838
:1000300081110008000000008311000885110008EC
:10004000C9380008C9380008C9380008C93800088C
:10005000C9380008C9380008C93800088D110008DF
:10006000C9380008C9380008C9380008C93800086C
:10007000C9380008C9380008C9380008C93800085C
:10008000C9380008C9380008C9380008C93800084C
:10009000C9380008C9380008C9380008C93800083C
:1000A000C9380008C9380008C9380008C93800082C
:1000B000C9380008C9380008C9380008C93800081C
:1000C000C9380008C9380008C9380008C93800080C
:1000D000C9380008C9380008C9380008C9380008FC
:1000E000C9380008C9380008C9380008C9380008EC
:1000F000C9380008C9380008C9380008C9380008DC
:10010000C9380008C9380008C9380008C9380008CB
:10011000C9380008C9380008C9380008C9380008BB
:10012000C9380008C9380008C9380008C9380008AB
:10013000C9380008C9380008C9380008C93800089B
:10014000C9380008C9380008C9380008C93800088B
:10015000C9380008C9380008C9380008C93800087B
:10016000C9380008C9380008C9380008C93800086B
:10017000C9380008C938000800000000000000006D
:08018000C9380008C938000865
:1001900010B5054C237833B9044B13B10448AFF3C1
:1001A00000800123237010BDE80100200000000042
:1001B0007866000808B5034B1BB103490348AFF349
:1001C000008008BD00000000EC01002078660008F7
:1001D000034613F8012B002AFBD1181A0138704787
:1001E00001F0FF01102A2BDB10F0070F08D010F8E8
:1001F000013B013A8B422DD010F0070F42B3F6D1EC
:10020000F0B441EA012141EA014122F007047FF004
:1002100000070023F0E80256083C85EA010586EA5B
:10022000010685FA47F5A3FA87F586FA47F6A5FA97
:1002300087F68EB9EED1F0BC01F0FF0102F00702A3
:1002400032B110F8013B013A83EA010313B1F8D14E
:100250000020704701387047002D06BF354603382F
:10026000073815F0010F07D1013015F4807F02BF68
:10027000013015F4C03F0130F0BC0138704700BFB9
:1002800081F0004102E000BF83F0004330B54FEA47
:1002900041044FEA430594EA050F08BF90EA020FB4
:1002A0001FBF54EA000C55EA020C7FEA645C7FEA47
:1002B000655C00F0E2804FEA5454D4EB5555B8BF6A
:1002C0006D420CDD2C4480EA020281EA030382EADB
:1002D000000083EA010180EA020281EA0303362D6D
:1002E00088BF30BD11F0004F4FEA01314FF4801C40
:1002F0004CEA113102D0404261EB410113F0004F52
:100300004FEA03334CEA133302D0524263EB430308
:1003100094EA050F00F0A780A4F10104D5F1200EA6
:100320000DDB02FA0EFC22FA05F2801841F1000101
:1003300003FA0EF2801843FA05F359410EE0A5F1D5
:1003400020050EF1200E012A03FA0EFC28BF4CF006
:10035000020C43FA05F3C01851EBE37101F00045BC
:1003600007D54FF0000EDCF1000C7EEB00006EEBC9
:100370000101B1F5801F1BD3B1F5001F0CD3490853
:100380005FEA30004FEA3C0C04F101044FEA4452AA
:1003900012F5800F80F09A80BCF1004F08BF5FEA31
:1003A000500C50F1000041EB045141EA050130BD11
:1003B0005FEA4C0C404141EB0101013C28BFB1F523
:1003C000801FE9D291F0000F04BF01460020B1FA6E
:1003D00081F308BF2033A3F10B03B3F120020CDA41
:1003E0000C3208DD02F1140CC2F10C0201FA0CF01F
:1003F00021FA02F10CE002F11402D8BFC2F1200C84
:1004000001FA02F120FA0CFCDCBF41EA0C01904039
:10041000E41AA2BF01EB0451294330BD6FEA040482
:100420001F3C1CDA0C340EDC04F11404C4F120026D
:1004300020FA04F001FA02F340EA030021FA04F37F
:1004400045EA030130BDC4F10C04C4F1200220FAD6
:1004500002F001FA04F340EA0300294630BD21FA14
:1004600004F0294630BD94F0000F83F4801306BFDA
:1004700081F480110134013D4EE77FEA645C18BFCE
:100480007FEA655C29D094EA050F08BF90EA020F65
:1004900005D054EA000C04BF1946104630BD91EA5D
:1004A000030F1EBF0021002030BD5FEA545C05D160
:1004B0004000494128BF41F0004130BD14F580049F
:1004C0003CBF01F5801130BD01F0004545F0FE4113
:1004D00041F470014FF0000030BD7FEA645C1ABF48
:1004E000194610467FEA655C1CBF0B46024650EA7F
:1004F000013406BF52EA033591EA030F41F40021AB
:1005000030BD00BF90F0000F04BF0021704730B530
:100510004FF4806404F132044FF000054FF0000105
:1005200050E700BF90F0000F04BF0021704730B5C6
:100530004FF4806404F1320410F0004548BF40429B
:100540004FF000013EE700BF42004FEAE2014FEAF0
:1005500031014FEA02701FBF12F07F4393F07F4FCB
:1005600081F06051704732F07F4208BF704793F0CE
:100570007F4F04BF41F40021704730B54FF46074E1
:1005800001F0004521F000411CE700BF50EA0102E4
:1005900008BF704730B54FF000050AE050EA01028D
:1005A00008BF704730B511F0004502D5404261EBFD
:1005B00041014FF4806404F132045FEA915C3FF43E
:1005C000D8AE4FF003025FEADC0C18BF03325FEADB
:1005D000DC0C18BF033202EBDC02C2F1200300FA8C
:1005E00003FC20FA02F001FA03FE40EA0E0021FAB1
:1005F00002F11444BDE600BF70B54FF0FF0C4CF49F
:10060000E06C1CEA11541DBF1CEA135594EA0C0F50
:1006100095EA0C0F00F0DEF82C4481EA030621EA8B
:100620004C5123EA4C5350EA013518BF52EA0335C6
:1006300041F4801143F4801338D0A0FB02CE4FF078
:100640000005E1FB02E506F00042E0FB03E54FF0A8
:100650000006E1FB03569CF0000F18BF4EF0010EA0
:10066000A4F1FF04B6F5007F64F5407404D25FEA9C
:100670004E0E6D4146EB060642EAC62141EA55514F
:100680004FEAC52040EA5E504FEACE2EB4F1FD0C91
:1006900088BFBCF5E06F1ED8BEF1004F08BF5FEA0F
:1006A000500E50F1000041EB045170BD06F00046C1
:1006B00046EA010140EA020081EA0301B4EB5C046E
:1006C000C2BFD4EB0C0541EA045170BD41F4801166
:1006D0004FF0000E013C00F3AB8014F1360FDEBF8B
:1006E000002001F0004170BDC4F10004203C35DA67
:1006F0000C341BDC04F11404C4F1200500FA05F3EA
:1007000020FA04F001FA05F240EA020001F000428A
:1007100021F0004110EBD37021FA04F642EB060100
:100720005EEA430E08BF20EAD37070BDC4F10C042A
:10073000C4F1200500FA04F320FA05F001FA04F2EE
:1007400040EA020001F0004110EBD37041F10001DA
:100750005EEA430E08BF20EAD37070BDC4F12005E5
:1007600000FA05F24EEA020E20FA04F301FA05F24D
:1007700043EA020321FA04F001F0004121FA04F2F5
:1007800020EA020000EBD3705EEA430E08BF20EAC5
:10079000D37070BD94F0000F0FD101F000464000FF
:1007A00041EB010111F4801F08BF013CF7D041EA81
:1007B000060195F0000F18BF704703F00046520085
:1007C00043EB030313F4801F08BF013DF7D043EA56
:1007D0000603704794EA0C0F0CEA135518BF95EA0C
:1007E0000C0F0CD050EA410618BF52EA4306D1D193
:1007F00081EA030101F000414FF0000070BD50EAB2
:10080000410606BF1046194652EA430619D094EA3B
:100810000C0F02D150EA013613D195EA0C0F05D125
:1008200052EA03361CBF104619460AD181EA030179
:1008300001F0004141F0FE4141F470014FF0000031
:1008400070BD41F0FE4141F4780170BD70B54FF0CC
:10085000FF0C4CF4E06C1CEA11541DBF1CEA13554C
:1008600094EA0C0F95EA0C0F00F0A7F8A4EB05042E
:1008700081EA030E52EA03354FEA013100F0888025
:100880004FEA03334FF0805545EA131343EA1263EE
:100890004FEA022245EA111545EA10654FEA0026A3
:1008A0000EF000419D4208BF964244F1FD0404F55C
:1008B000407402D25B084FEA3202B61A65EB0305B8
:1008C0005B084FEA32024FF480104FF4002CB6EB75
:1008D000020E75EB030E22BFB61A754640EA0C00F5
:1008E0005B084FEA3202B6EB020E75EB030E22BF35
:1008F000B61A754640EA5C005B084FEA3202B6EB76
:10090000020E75EB030E22BFB61A754640EA9C0034
:100910005B084FEA3202B6EB020E75EB030E22BF04
:10092000B61A754640EADC0055EA060E18D04FEAC2
:10093000051545EA16754FEA06164FEAC30343EA62
:1009400052734FEAC2025FEA1C1CC0D111F4801F2F
:100950000BD141EA00014FF000004FF0004CB6E728
:1009600011F4801F04BF01430020B4F1FD0C88BFC7
:10097000BCF5E06F3FF6AFAEB5EB030C04BFB6EBD2
:10098000020C5FEA500C50F1000041EB045170BDC5
:100990000EF0004E4EEA113114EB5C04C2BFD4EBF2
:1009A0000C0541EA045170BD41F480114FF0000E76
:1009B000013C90E645EA060E8DE60CEA135594EAF2
:1009C0000C0F08BF95EA0C0F3FF43BAF94EA0C0FF5
:1009D0000AD150EA01347FF434AF95EA0C0F7FF46A
:1009E00025AF104619462CE795EA0C0F06D152EABE
:1009F00003353FF4FDAE1046194622E750EA4106A2
:100A000018BF52EA43067FF4C5AE50EA41047FF4B2
:100A10000DAF52EA43057FF4EBAE12E74FF0FF3C17
:100A200006E000BF4FF0010C02E000BF4FF0010CE8
:100A30004DF804CD4FEA410C7FEA6C5C4FEA430C61
:100A400018BF7FEA6C5C1BD001B050EA410C0CBFB0
:100A500052EA430C91EA030F02BF90EA020F002012
:100A6000704710F1000F91EA030F58BF994208BF79
:100A700090422CBFD8176FEAE37040F00100704736
:100A80004FEA410C7FEA6C5C02D150EA013C07D18D
:100A90004FEA430C7FEA6C5CD6D152EA033CD3D0D8
:100AA0005DF8040B704700BF8446104662468C46D2
:100AB0001946634600E000BF01B5FFF7B7FF002805
:100AC00048BF10F1000F01BD4DF808EDFFF7F4FF2E
:100AD0000CBF012000205DF808FB00BF4DF808EDB9
:100AE000FFF7EAFF34BF012000205DF808FB00BFDC
:100AF0004DF808EDFFF7E0FF94BF012000205DF8FE
:100B000008FB00BF4DF808EDFFF7CEFF94BF0120B2
:100B100000205DF808FB00BF4DF808EDFFF7C4FFAB
:100B200034BF012000205DF808FB00BF4FEA410CF4
:100B30007FEA6C5C02D150EA013C0AD14FEA430CD7
:100B40007FEA6C5C02D152EA033C02D14FF0000014
:100B500070474FF0010070474FEA410212F5001252
:100B600015D211D56FF47873B3EB625212D94FEAF4
:100B7000C12343F0004343EA505311F0004F23FADE
:100B800002F018BF404270474FF00000704750EA33
:100B9000013005D111F0004008BF6FF000407047F0
:100BA0004FF00000704700BF2DE9F04188B00024ED
:100BB000039404940594069407942E4BDA6C42F047
:100BC0001002DA64DA6C02F010020092009ADA6C19
:100BD00042F00202DA64DA6C02F002020192019A37
:100BE000DA6C42F00402DA64DB6C03F00403029373
:100BF000029B214E012240F20111304600F083FF9A
:100C0000DFF87C8022464FF41071404600F07BFFF5
:100C10004FF48073039301250495059502270697E9
:100C200003A9304600F082FE4FF41073039304953D
:100C30000594069403A9404600F078FE03950495B8
:100C40000594069403A9304600F070FE03970B4B01
:100C50000493059403A9304600F068FE224621461D
:100C6000072000F00BFE072000F03CFE08B0BDE8B6
:100C7000F08100BF00100240001000480000111079
:100C800000080048384B1B78032B0DD8DFE803F031
:100C9000020F265B354A1370334B01221A70344B16
:100CA00000229A601A705A60304B187870470123FE
:100CB0002D4A13702D4A1370DFED2E7AB4EEE70A39
:100CC000F1EE10FAF0DBDFED2C7AB4EEE70AF1EE8C
:100CD00010FAE9D8244B02221A70E5E70223224ACF
:100CE0001370224A13702249D1ED027AF8EEE77AA6
:100CF00077EE807AFDEEE77AC1ED027A4A6801323A
:100D00004A60032AD0DDDFED1B7AB4EEE70AF1EE8C
:100D100010FA0FDBDFED187AB4EEE70AF1EE10FA05
:100D200008D801220A7000224A608A600E4B032212
:100D30001A70B9E70C4B01221A700D4B00221A7081
:100D40005A609A60B0E70323074A1370074A13708A
:100D5000DFED097AB4EEE70AF1EE10FAA4DD024BFA
:100D600002221A70A0E700BFFC020020FD02002052
:100D7000F002002000003E430000C8430023034A65
:100D80001370034A1360034A136070473402002053
:100D9000380200208802002072B6FEE708B50F482E
:100DA0000F4B03604FF482734360002383604FF462
:100DB000E062C260036143614FF400728261C3610B
:100DC0000362436283620722C262036308234363B0
:100DD00002F073FB00B908BDFFF7DEFF8C020020B4
:100DE000003C004008B51148114B036040F6146305
:100DF0004360002383600122C26003614361836119
:100E0000C361036200F0DAFF50B90021074801F026
:100E1000AFF938B90021054801F0D8F920B908BD6B
:100E2000FFF7BAFFFFF7B8FFFFF7B6FF3C0200205D
:100E30000058004000B5B9B04022002128A802F0B7
:100E40007DFD0021229123912491259126918822D4
:100E5000684602F073FD1023279301232D9360232E
:100E60002F9327A801F0D0FAD0B90F2322930021A5
:100E7000239124912591269122A801F0DDFD88B9C6
:100E80008023009300231593684601F0E1FF58B9D1
:100E90004FF4007001F0CEF940B939B05DF804FBB1
:100EA000FFF77AFFFFF778FFFFF776FFFFF774FF92
:100EB00010B582B000F09AFCFFF7BCFFFFF774FE9C
:100EC000FFF76CFFFFF78EFF3B4C00224FF4807161
:100ED000204600F018FE4FF47A7000F0A9FC0122C1
:100EE0004FF48071204600F00EFE00F0E7F9002874
:100EF000FBD000F029FC01224021304800F003FE25
:100F000000F06AF8012000F093FC00230193FFF742
:100F100035FF05E02A4B01221A702A4B00221A7075
:100F2000274B1B78042BFBD801A252F823F000BFFB
:100F3000150F0008450F00088B0F0008930F0008DD
:100F40009B0F00081E4B01221A7001A800F058F8F0
:100F5000DDED017AB8EEE70AFFF794FE1A4C206047
:100F60004FF40071154800F0D3FD642000F060FCE0
:100F700000F032F8154B1A6823689A42D0D0134A11
:100F800013600F4B04221A70CAE70D4B01221A702E
:100F9000C6E70B4B01221A70C2E70D4800F07CFA3D
:100FA000094B19680B4800F0D5FA00F02FFB044BF1
:100FB00001221A70B4E700BF001000480008004882
:100FC00034020020FC0200203802002088020020A9
:100FD000D8660008E466000800B585B04FF4807359
:100FE000ADF80C3001230093022303AA52210348D9
:100FF00000F042FF05B05DF804FB00BF3C0200209A
:1010000070B584B004461E238DF80C300023ADF873
:101010000830134E012500952B4603AA5221304675
:1010200000F02AFF0095022302AA5321304600F067
:10103000E1FF9DF808209DF8093003EB0223143BE3
:101040002360002B08DB2368B3F5FA6F02DD4FF451
:10105000FA63236004B070BD00232360F3E700BF90
:101060003C02002082B00A4B1A6E42F001021A665E
:101070001A6E02F001020092009A9A6D42F08052BC
:101080009A659B6D03F080530193019B02B07047FA
:101090000010024010B588B0002303930493059319
:1010A000069307930268144B9A4201D008B010BD12
:1010B000124CE36C43F00203E364E36C03F00203BD
:1010C0000193019B4FF44063039312230493012384
:1010D0000593032306930423079303A9084800F00C
:1010E00025FCA36D43F48003A365A36D03F4800383
:1010F0000293029BDAE700BF005800400010024054
:101100000004004800B589B00023039304930593BD
:10111000069307930268154B9A4202D009B05DF816
:1011200004FB03F5EA339A6D42F400429A659A6D26
:1011300002F400420192019ADA6C42F00402DA648D
:10114000DB6C03F004030293029B4FF4E053039320
:101150000223049300230593032306930623079396
:1011600003A9034800F0E2FBD8E700BF003C0040C1
:1011700000080048FEE7FEE7FEE7FEE7FEE77047EF
:101180007047704708B500F041FB08BD08B5022064
:1011900000F0C8FC014B01221A6008BD0C020020BF
:1011A0000120704708B502F091FB162303604FF051
:1011B000FF3008BD08B54FF0FF31FFF7F3FFFEE742
:1011C00070B50C4616460025B54207DAAFF300802D
:1011D000214601F8010B01350C46F5E7304670BD9C
:1011E00070B50C4616460025B54205DA14F8010B19
:1011F000AFF300800135F7E7304670BD08B5034610
:101200000B4A126842B10A4A106803446A46934284
:1012100006D8074A136008BD054A06491160F2E77F
:1012200002F054FB0C2303604FF0FF30F3E700BFE4
:1012300004020020C01000204FF0FF3070474FF430
:1012400000534B600020704701207047002070471A
:101250000F49D1F8883043F47003C1F888300D4B42
:101260001A6842F001021A60002098601A6822F0A1
:10127000A85222F410221A604FF48052DA601A68E1
:1012800022F480221A6098614FF000638B607047EF
:1012900000ED00E000100240002393420CDA30B46D
:1012A000C55CCC5CA54205D101339342F8DB01203B
:1012B00030BC70470020FBE70120704710B582B0BA
:1012C0001B4B1B68002BFBD00024194B1C604FF4F8
:1012D0007A722146174802F031FB22460121164856
:1012E00000F011FC124C62680123009302231149A3
:1012F0000A441249124802F04FF9636802336360EE
:1013000002210D4800F0F8FB0128EBD00122114624
:10131000094800F0F8FB06220A490648FFF7BCFF1F
:1013200018B90022626002B010BD0120FBE700BFC7
:101330000C020020C40C0020001000480400002013
:101340008C02002008000020002393420ADA30B407
:101350005C1C055DCD54C55C0D5502339342F7DB33
:1013600030BC70477047002393420ADA30B45C1CEB
:10137000055DCD54C55C0D5502339342F7DB30BC9F
:10138000704770472DE9F04182B007460D463B4B50
:101390001B68002BFBD0394E0024346074604FF47E
:1013A0007A722146364802F0C9FADFF8DC804FF441
:1013B000FA720A21404602F0C1FA2A4641463846EE
:1013C000FFF7D1FF7460224601212E4800F09BFBFD
:1013D0002A4C6068012300930223294A02442A49C7
:1013E00001442A4802F0D8F8636802336360AB42D4
:1013F000EEDB01221146234800F085FB1F4B1B68E2
:10140000002BFBD01D4B00241C605C604FF47A72F3
:1014100021461B4802F092FA22460121194800F0A9
:1014200072FB164C626801230093022314490A449C
:101430001749164802F0B0F863680233636002216E
:10144000104800F059FB0128EBD0012211460D484D
:1014500000F059FB0F4C4FF47A752A4600212046C4
:1014600002F06CFA2A4621460548FFF76DFF01207D
:1014700000F0DEF902B0BDE8F08100BF0C020020F0
:10148000C40C002000100048E80600208C02002058
:101490000400002000030020F8B50546284B9B6897
:1014A0007BB3284C2046FEF793FE84460719264E50
:1014B0000FCE4CF804007960BA60FB6033883B8241
:1014C0002046FEF785FE214B1E88265229462046DF
:1014D00002F0C6FE2046FEF77BFE26522046FEF7AF
:1014E00077FE054606191A4B07CB28517160B2608A
:1014F0001B88B381124B9A6801329A600022DA602D
:10150000F8BD104C4FF47A720021204602F016FA12
:101510000E4B1E8826802946204602F0A1FE20465A
:10152000FEF756FE26522046FEF752FE05460619E5
:10153000074B07CB28517160B2601B88B381D9E794
:101540000C020020DC080020F46600080867000890
:101550000C670008F0B585B006460D46264BDB68E3
:1015600053B32C23ADF80430244C01A9204602F0DB
:1015700077FE2046FEF72CFE214B1F88275231466E
:10158000204602F06DFE2046FEF722FE275220463E
:10159000FEF71EFE1B4B1B8823522A461A4901A840
:1015A00002F03EFE01A9204602F05AFE124AD3681C
:1015B0000133D36005B0F0BD104C2046FEF708FEA5
:1015C0000F4B1F8827523146204602F049FE204625
:1015D000FEF7FEFD27522046FEF7FAFD094B1B8859
:1015E00023522A46084901A802F01AFE01A9204602
:1015F00002F036FEDAE700BF0C020020DC08002013
:1016000008670008C06700081C670008F0B5ADF265
:10161000E47D06214348FFF7B5FE4348FEF7D8FDB9
:1016200000F14F044FF47A752A460021FEA802F01B
:1016300085F92A46002104A802F080F962223B497C
:10164000FEA802F06DF9002301930293ADF80C306F
:101650002246374901A802F0E3FD01A9FEA802F0E5
:10166000FFFDFEA8FEF7B4FD324DFEAB1C1805F1E0
:1016700020072E460FCE20606160A260E3603546F1
:101680001034BE42F5D130682060B388A38026496B
:10169000FEA802F0E5FDFEA8FEF79AFD264DFEAB82
:1016A0001C1805F120072E460FCE20606160A26055
:1016B000E36035461034BE42F5D1334607CB206097
:1016C0006160A2601A889B78A281A3731B4B04936C
:1016D000002401940294ADF80C40FEA8FEF778FDBA
:1016E000421E134901A802F09BFD01A904A802F0C3
:1016F000B7FDFEA904A802F0B3FD04A8FEF768FD3B
:10170000014604A8FFF73EFE06210D48FFF73AFE0A
:101710004FF47A7000F08CF80A4BDC609C600DF29C
:10172000E47DF0BD2C670008DC0800203467000869
:10173000986700089C670008C467000853333D00A1
:10174000F46700080C02002008B510210D48FFF7CF
:1017500019FE0D210C48FFF715FE06210B48FFF777
:1017600011FE04210A48FFF70DFE06210948FFF784
:1017700009FE11210848FFF705FE0A210748FFF777
:1017800001FE08BDFC67000810680008206800081A
:101790002868000830680008386800084C680008AD
:1017A000104B1B780BB90120704710B504464FF45D
:1017B0007A70B0FBF3F30C4A1068B0FBF3F000F062
:1017C0009FF868B90F2C01D901200AE000222146B8
:1017D0004FF0FF3000F052F8024B5C60002000E058
:1017E000012010BD100000200000002010B50320D3
:1017F00000F032F80020FFF7D3FF10B1012420469B
:1018000010BD0446FFF72EFCF9E70000034B1B78E0
:10181000034A11680B441360704700BF100000209A
:10182000AC100020014B1868704700BFAC100020BE
:1018300038B50446FFF7F6FF0546B4F1FF3F02D086
:10184000044B1B781C44FFF7EDFF401BA042FAD36A
:1018500038BD00BF10000020074AD36823F4E063BE
:101860001B041B0C000200F4E060034343F0BF6361
:1018700043F40033D360704700ED00E030B4174B01
:10188000DB68C3F30223C3F10704042C28BF04243C
:101890001D1D062D18D9033B4FF0FF3505FA04F442
:1018A00021EA0401994005FA03F322EA03031943EC
:1018B00000280BDB0901C9B200F1604000F561406E
:1018C00080F8001330BC70470023E5E700F00F00FC
:1018D0000901C9B2024B1954F4E700BF00ED00E062
:1018E00014ED00E0002807DB00F01F02400901238F
:1018F0009340024A42F82030704700BF00E100E008
:101900000138B0F1807F0AD2064B5860064AF021B8
:1019100082F823100020986007221A607047012087
:10192000704700BF10E000E000ED00E0F0B583B0CC
:1019300000233FE0C66A26EA0406C5F3C0049C40C3
:101940003443C4625FE0062400E00024B4403C431A
:101950000235654E46F82540644C2568D44325EA97
:1019600002064F6817F4803F01D042EA05065F4D3A
:101970002E606D6804EA05064F6817F4003F01D039
:1019800042EA0506594D6E60AD6804EA05064F68E7
:1019900017F4801F01D042EA0506544DAE60ED6891
:1019A0002C404E6816F4001F01D042EA05044F4A4D
:1019B000D46001330A6832FA03F400F09280012403
:1019C0009C402240F5D04D686E1E012E03D9112D8A
:1019D00001D0122D12D186685F000325BD4026EA92
:1019E0000506CD68BD4035438560466826EA040695
:1019F0004D68C5F300159D40354345604D6805F0C1
:101A00000306032E96D0C7685E000325B540EC435D
:101A100027EA05078D68B5403D43C5604D68022D36
:101A200001D0122D13D1DF08083750F827E003F05A
:101A300007054FEA850C0F2505FA0CF52EEA050E71
:101A40000D6905FA0CF545EA0E0540F827500568C2
:101A500025404C6804F00304B4402C4304604C68F7
:101A600014F0805FA5D0224C256E45F00105256657
:101A7000246E04F001040194019C9D08AE1C1A4CD4
:101A800054F8267003F00304A6000F24B44027EA9C
:101A90000407B0F1904F3FF458AF164CA04216D057
:101AA00004F58064A04214D004F58064A04212D0F2
:101AB00004F58064A04210D004F58064A0420ED0EA
:101AC00004F58064A0423FF43EAF07243EE70124C2
:101AD0003CE702243AE7032438E7042436E70524E8
:101AE00034E703B0F0BD00BF000001400004014036
:101AF00000100240000400480369194201D001208F
:101B00007047002070470AB1816170478162704759
:101B1000436901EA030221EA030141EA02418161CA
:101B20007047704708B5054B5B69034200D108BD9B
:101B3000024B5861FFF7F5FFF9E700BF00040140D1
:101B400003689A6912F0020F01D000229A620368BA
:101B50009A6912F0010F03D19A6942F001029A6169
:101B6000704770B4039E05686868740D04F480645F
:101B700044F07F7444F4583444F47F7444F0030414
:101B800020EA0400C1F3090141EA0241194331434B
:101B90000143696070BC7047F8B505460E461746AC
:101BA00003689B6913F0100F01D10020F8BD2B686A
:101BB0009C6914F0200F17D1B6F1FF3FF7D0FFF763
:101BC00031FEC01BB04201D8002EF0D16B6C43F047
:101BD00020036B64202385F84130002385F84230D0
:101BE00085F840300120E1E71022DA612B682024DB
:101BF000DC612846FFF7A4FF2A68536823F0FF73CF
:101C000023F48B3323F4FF7323F0010353606B6CD5
:101C100043F004036B6485F84140002385F84230AB
:101C200085F840300120C1E770B504460D461646E0
:101C300023689B6913F0020F1DD1324629462046C6
:101C4000FFF7AAFFC8B9B5F1FF3FF1D0FFF7EAFDF2
:101C5000801BA84201D8002DEAD1636C43F0200319
:101C60006364202384F84130002384F8423084F8F0
:101C70004030012000E0002070BD0120FCE72DE98C
:101C8000F0410646884617461D463468A46938EA7E
:101C900004030CBF01240024BC4218D1B5F1FF3F5E
:101CA000F3D0FFF7BFFD069BC01AA84201D8002D54
:101CB000EBD1736C43F020037364202386F841302A
:101CC000002386F8423086F84030012000E00020F2
:101CD000BDE8F08170B505460C4616462B689B6939
:101CE00013F0200F1AD1324621462846FFF754FF41
:101CF000B0B9FFF797FD801BA04201D8002CEDD1B1
:101D00006B6C43F020036B64202385F84130002383
:101D100085F8423085F84030012070BD0020FCE796
:101D20000120FAE770B504460D46164623689B6904
:101D300013F0040F3ED1324629462046FFF72CFF10
:101D40000146002838D123689A6912F0200F13D178
:101D5000FFF768FD801BA84201D8002DE6D1636C17
:101D600043F020036364202384F84130002384F887
:101D700040300121084670BD9A6912F0040F02D06C
:101D8000228D002AF6D12022DA6121684B6823F0E7
:101D9000FF7323F48B3323F4FF7323F001034B60B1
:101DA0000023636484F8412084F8423084F8403092
:101DB0000121DFE70021DDE70121DBE7002859D021
:101DC00010B5044690F84130002B43D0242384F80A
:101DD00041302268136823F00103136063682268AE
:101DE00023F0706313612268936823F400439360C7
:101DF000E368012B33D0A368226843F40443936063
:101E0000E368022B31D02268536843F0007343F437
:101E1000004353602268D36823F40043D3602369EE
:101E200062691343A169226843EA0123D360E3692D
:101E3000216A22680B4313602268136843F0010390
:101E4000136000206064202384F84130206384F80C
:101E5000420010BD80F84030FFF71CF9B6E7A368D8
:101E6000226843F400439360CAE723684FF400629A
:101E70005A60C8E7012070472DE9F04782B00F464D
:101E80000A9E90F84110C9B2202940F0A380044670
:101E90009046994690F84030012B00F09F804FF01B
:101EA000010A80F840A0FFF7BDFC05460090192309
:101EB00052464FF400412046FFF7E1FE002840F073
:101EC0008F80212384F84130102384F8423000238E
:101ED0006364C4F82480A4F82A906363638D9BB282
:101EE000FF2B0AD9FF222285414B00934FF08073CC
:101EF00039462046FFF735FE18E0628D92B2228502
:101F00003B4B00934FF00073D2B239462046FFF7A7
:101F100028FE0BE0628D92B22285002300934FF0E1
:101F20000073D2B239462046FFF71BFE638D9BB289
:101F3000002B33D02A4631462046FFF775FE002895
:101F400050D1626A236812789A62636A01336362CD
:101F5000638D9BB2013B9BB26385238D013B9BB29A
:101F60002385628D92B2002AE0D0002BDED100954D
:101F70003346002280212046FFF781FEA0BB638DFF
:101F80009BB2FF2BC6D9FF222285002300934FF07E
:101F9000807339462046FFF7E4FDC7E72A463146FD
:101FA0002046FFF797FE08BB23682022DA612168EC
:101FB0004B6823F0FF7323F48B3323F4FF7323F078
:101FC00001034B6084F84120002384F8423084F8F8
:101FD000403000E0022002B0BDE8F0870220FAE7BE
:101FE0000120F8E70120F6E70120F4E70120F2E7FD
:101FF000002000802DE9F04782B00F460A9E90F83D
:102000004110C9B2202940F0A2800446904699466A
:1020100090F84030012B00F09E804FF0010A80F8CC
:1020200040A0FFF7FFFB05460090192352464FF4EE
:1020300000412046FFF723FE002840F08E80222337
:1020400084F84130102384F8423000236364C4F8DC
:102050002480A4F82A906363638D9BB2FF2B0AD976
:10206000FF222285414B00934FF080733946204672
:10207000FFF777FD18E0628D92B222853B4B00930B
:102080004FF00073D2B239462046FFF76AFD0BE0ED
:10209000628D92B22285002300934FF00073D2B27A
:1020A00039462046FFF75DFD638D9BB2002B32D091
:1020B0002A4631462046FFF735FE00284FD12368D7
:1020C0005A6A636A1A70636A01336362228D013A45
:1020D00092B22285638D9BB2013B9BB26385638D77
:1020E0009BB2002BE0D0002ADED100953346802140
:1020F0002046FFF7C4FDA0BB638D9BB2FF2BC7D961
:10210000FF222285002300934FF08073394620463A
:10211000FFF727FDC8E72A4631462046FFF7DAFDDC
:1021200008BB23682022DA6121684B6823F0FF7323
:1021300023F48B3323F4FF7323F001034B6084F803
:102140004120002384F8423084F8403000E002202F
:1021500002B0BDE8F0870220FAE70120F8E701208D
:10216000F6E70120F4E70120F2E700BF0024008039
:1021700090F84130DBB2202B24D190F84030012B75
:1021800022D0012380F84030242380F841300268B7
:10219000136823F0010313600268136823F480536B
:1021A000136002681368194311600268136843F0F2
:1021B00001031360202380F84130002380F8403071
:1021C00018467047022070470220704790F841304F
:1021D000DBB2202B22D190F84030012B20D00123FC
:1021E00080F84030242380F841300268136823F0DF
:1021F000010313600268136823F4706343EA01214A
:1022000011600268136843F001031360202380F813
:102210004130002380F84030184670470220704754
:1022200002207047024B186800F4C060704700BF7E
:1022300000700040B0F5007F0FD01F4B1B6803F407
:10224000C063B3F5806F34D01B4A136823F4C063B6
:1022500043F48063136000207047174B1B6803F43E
:10226000C063B3F5007F20D0134A136823F4C06322
:1022700043F400731360114B1A68322303FB02F31B
:102280000F4AA2FB03239B0C013300E0013B0A4AE7
:10229000526912F4806F01D0002BF7D1064B5B69B5
:1022A00013F4806F03D10020704700207047032093
:1022B00070470020704700BF007000400000002001
:1022C00083DE1B4330B583B00446204B9B6D13F077
:1022D000805F0BD0FFF7A6FFB0F5007F17D0802CF2
:1022E0001FD82DD0702C2DD000211BE0174DAB6DC9
:1022F00043F08053AB65AB6D03F080530193019BBA
:10230000FFF790FFAB6D23F08053AB65E4E7802CC3
:1023100003D9A02C03D9022104E0002102E001210D
:1023200000E003210A4A136823F007030B431360FC
:10233000136803F007038B4206D1002003B030BDC1
:102340000221EFE70121EDE70120F7E7001002404D
:1023500000200240284A9368D26802F0030213F07A
:102360000C030AD00C2B06D0042B1FD0082B20D036
:102370000020024610E0012AF6D11F4A126812F02E
:10238000080F0CD11C4AD2F89420C2F303221B4937
:1023900051F8222043B100200C2B0DD07047164A73
:1023A0001268C2F30312F2E71046F5E71448002260
:1023B000F2E714480022EFE70F4BDB6803F003035A
:1023C000022B16D0032B00D10E4A0B4BD868C0F35A
:1023D00002100130D968C1F3062102FB01F2B2FB01
:1023E000F0F2D868C0F3416001304000B2FBF0F079
:1023F000D4E7034AE9E700BF0010024090660008F6
:102400000024F40000127A00002800F0FF82F0B5EA
:1024100083B00446AE4B9D6805F00C05DE6806F0FF
:102420000306036813F0100F5AD0E5B10C2D18D035
:10243000A369002B00F0BB80A54A136843F0010399
:102440001360FFF7EFF90746A14B1B6813F0020F6B
:1024500040F09A80FFF7E6F9C01B0228F4D9032068
:10246000DFE2012EE4D19A4B1B6813F0020F03D078
:10247000A369002B00F0CC82206A954B1B6813F0F7
:10248000080F5BD0924B1B6803F0F00398425CD8B6
:102490008F4B1A6842F008021A601A6822F0F002A4
:1024A000216A0A431A605A6822F47F42E16942EACB
:1024B00001225A60002D60D0FFF74CFF844B9B68CF
:1024C000C3F30313834AD35C03F01F03D840824B4A
:1024D0001860824B1868FFF763F9002840F0A1826A
:1024E000236813F0010F00F08180082D75D00C2DAA
:1024F00071D06368B3F5803F00F09780B3F5A02FEB
:1025000000F09980724B1A6822F480321A601A68BF
:1025100022F480221A606368002B00F09980FFF794
:1025200081F907466A4B1B6813F4003F5ED1FFF741
:1025300079F9C01B6428F5D9032072E2644BD3F803
:1025400094301B0903F0F003A0E7FFF7BBFE00285F
:1025500040F060825E4B1A6842F008021A601A6806
:1025600022F0F002216A0A431A605A6822F47F427C
:10257000E16942EA01225A609EE7206AFFF7A2FE63
:10258000002899D001204CE2514B1A6842F0080211
:102590001A601A6822F0F002216A0A431A605A6827
:1025A00022F47F42E16942EA01225A6098E7484AF0
:1025B000136823F001031360FFF734F90746444B17
:1025C0001B6813F0020F8BD0FFF72CF9C01B0228F9
:1025D000F5D9032025E2032E8BD13D4B1B6813F464
:1025E000003F03D06368002B00F01682236813F0CD
:1025F000020F4FD0042D3CD00C2D38D0E368002BB7
:1026000077D0334A136843F480731360FFF70AF9F5
:1026100006462F4B1B6813F4806F61D1FFF702F958
:10262000801B0228F5D90320FBE1294A136843F4F3
:10263000803313606FE703F18043A3F53C331A68DE
:1026400042F480221A601A6842F480321A6062E70B
:10265000FFF7E8F807461E4B1B6813F4003FC5D090
:10266000FFF7E0F8C01B6428F5D90320D9E1022E5A
:10267000C4D1174B1B6813F4806F03D0E368002BA1
:1026800000F0CC81124A536823F0F853216943EAE1
:1026900001635360236813F0080F55D06369002B62
:1026A0003BD00B4AD2F8943043F00103C2F8943087
:1026B000FFF7B8F80646064BD3F8943013F0020F34
:1026C00042D1FFF7AFF8801B0228F4D90320A8E11C
:1026D00000100240C0660008000000201400002026
:1026E000B84A536823F0F853216943EA0163536001
:1026F000D0E7B44A136823F480731360FFF792F8AD
:102700000646B04B1B6813F4806FC3D0FFF78AF8FE
:10271000801B0228F5D9032083E1AA4AD2F894301D
:1027200023F00103C2F89430FFF77CF80646A54B6E
:10273000D3F8943013F0020F06D0FFF773F8801B24
:102740000228F4D903206CE1236813F0040F7AD037
:102750009C4B9B6D13F0805F36D19A4B9A6D42F083
:1027600080529A659B6D03F080530193019B012673
:10277000954B1B6813F4807F28D0A368012B39D0B8
:10278000052B3FD08F4BD3F8902022F00102C3F8E5
:102790009020D3F8902022F00402C3F89020A36880
:1027A000002B3DD0FFF73EF80746864BD3F890301C
:1027B00013F0020F46D1FFF735F8C01B41F2883302
:1027C0009842F2D903202CE10026D1E77E4A136813
:1027D00043F480731360FFF725F807467A4B1B68B4
:1027E00013F4807FC9D1FFF71DF8C01B0228F5D96B
:1027F000032016E1734AD2F8903043F00103C2F887
:102800009030CCE76F4BD3F8902042F00402C3F82D
:102810009020D3F8902042F00102C3F89020BEE748
:10282000FFF700F80746674BD3F8903013F0020F1C
:1028300008D0FEF7F7FFC01B41F288339842F2D967
:102840000320EEE06EBBA36A002B00F0E980022BB0
:102850002DD00C2D00F0EB805A4B1A6822F08072BC
:102860001A601B6813F0205F04D1564AD36823F026
:102870000303D360534AD36823F0887323F480336F
:10288000D360FEF7CFFF04464E4B1B6813F0007F6A
:1028900000F0BA80FEF7C6FF001B0228F4D903201F
:1028A000BFE0484A936D23F080539365CBE7454BD7
:1028B000DB6803F00301E26A91420FD00C2D00F0B7
:1028C000B280404B1B6813F0806F40F0AE803D4BF0
:1028D0001B6813F0805F2DD00120A2E003F070028E
:1028E000216B0139B2EB011FE8D103F4FE42616BA9
:1028F000B2EB012FE2D103F40031A26B073A18BF0B
:1029000001229142DAD103F4C001E26B5208013A8C
:10291000B1EB425FD2D103F0C063226C5208013A9E
:10292000B3EB426FCAD1274B1B6813F0007F51D025
:10293000002076E0234A136823F080731360FEF7CB
:1029400071FF05461F4B1B6813F0007F06D0FEF792
:1029500069FF401B0228F5D9032062E0194AD368B9
:102960001A491940E36A206B013843EA0013606B8F
:1029700043EA0023E06B4008013843EA4053206CEF
:102980004008013843EA4063A06B000943EA404332
:102990000B43D360136843F080731360D36843F034
:1029A0008073D360FEF73EFF0446064B1B6813F0AE
:1029B000007F0DD1FEF736FF001B0228F5D903205A
:1029C0002FE000BF00100240007000408C809DF995
:1029D000002026E0174B1A6842F080721A60DA680D
:1029E00042F08072DA60FEF71DFF0446114B1B684F
:1029F00013F0007F06D1FEF715FF031B022BF5D95C
:102A000003200EE000200CE000200AE001207047C7
:102A1000012006E0012004E0012002E0012000E0A6
:102A2000002003B0F0BD0120FBE70120F9E7012001
:102A3000F7E700BF00100240002800F0988070B552
:102A40000C4605464E4B1B6803F007038B420BD226
:102A50004B4A136823F007030B431360136803F01A
:102A600007038B4240F085802B6813F0010F39D0AB
:102A70006B68032B09D0022B26D063BB414A126836
:102A800012F0020F06D1012070E03E4A126812F0E7
:102A9000007F70D03B498A6822F0030213438B60A9
:102AA000FEF7C0FE0646374B9B6803F00C036A68CE
:102AB000B3EB820F16D0FEF7B5FE801B41F28833D0
:102AC0009842F0D9032051E02E4A126812F4003FD8
:102AD000E0D101204AE02B4A126812F4806FD9D16C
:102AE000012043E02B6813F0020F06D0254A9368BB
:102AF00023F0F003A9680B439360214B1B6803F09C
:102B00000703A3420AD91E4A136823F0070323438D
:102B10001360136803F00703A3422ED12B6813F050
:102B2000040F06D0174A936823F4E063E9680B4367
:102B300093602B6813F0080F07D0124A936823F4B0
:102B40006053296943EAC1039360FFF703FC0D4B0F
:102B50009B68C3F303130C4AD35C03F01F03D840F4
:102B60000A4B18600A4B1868FEF71AFE70BD012068
:102B700070470120FAE70120F8E70120F6E700BFDF
:102B80000020024000100240C06600080000002043
:102B900014000020F8B504460F46594BDB6813F0CB
:102BA000030F18D0564BDB6803F00303026893420F
:102BB00002D001252846F8BD002A00F09E80504B27
:102BC000DB68C3F3021301334268934201D001254D
:102BD000F0E7002509E00368022B57D0032B5CD0F7
:102BE000012B42D00125002DE4D1454A136823F082
:102BF00080631360FEF716FE0646414B1B6813F018
:102C0000006F05D0FEF70EFE831B022BF5D90325BE
:102C1000002DCFD1002F4ED139490B6923F41F333A
:102C200023F44073A068E2681209520442EA0022C9
:102C300013430B61324A136843F080631360FEF75D
:102C4000F1FD06462E4B1B6813F0006F05D1FEF711
:102C5000E9FD831B022BF5D90325002DAAD1284AB3
:102C60001369A1690B431361A4E7254A126812F0A6
:102C7000020F1ED02248C26822F073026168013937
:102C800043EA01131343C3600025ACE71C4A1268F2
:102C900012F4806FEED10125A5E7194A126812F4EB
:102CA000003FE7D1164A126812F4802FE2D10125C5
:102CB00099E7012597E7012F0FD01148026922F00B
:102CC000C06222F4FE42A16863695B08013B5B06B7
:102CD00043EA012313430361ACE70948026922F484
:102CE000C00222F4FE42A16823695B08013B5B0538
:102CF00043EA0123134303619CE701255AE700BF20
:102D000000100240F8B504460F46504BDB6813F044
:102D1000030F18D04D4BDB6803F0030302689342A6
:102D200002D001252846F8BD002A00F08C80474BD0
:102D3000DB68C3F3021301334268934201D00125DB
:102D4000F0E7002509E00368022B57D0032B5CD085
:102D5000012B42D00125002DE4D13C4A136823F019
:102D600080531360FEF75EFD0646384B1B6813F078
:102D7000005F05D0FEF756FD831B022BF5D9032516
:102D8000002DCFD1002F4ED130494B6923F41F3392
:102D900023F44073A068E2681209520442EA002258
:102DA00013434B61294A136843F080531360FEF7C5
:102DB00039FD0646254B1B6813F0005F05D1FEF771
:102DC00031FD831B022BF5D90325002DAAD11F4A03
:102DD000536961690B435361A4E71C4A126812F0FE
:102DE000020F1ED01948C26822F0730261680139CF
:102DF00043EA01131343C3600025ACE7134A12688A
:102E000012F4806FEED10125A5E7104A126812F482
:102E1000003FE7D10D4A126812F4802FE2D101255C
:102E200099E7012597E70948426922F0C06222F438
:102E3000FE42A16823695B08013B5B0643EA01236C
:102E400013434361AEE701256CE700BF0010024069
:102E50002DE9F04182B00446036813F4006F33D0CB
:102E6000436EB3F5000F1FD00CD823B3B3F5800F1A
:102E700005D100212030FFF745FF064620E001275D
:102E80003E4623E0B3F5400F0BD10026624AD2F84C
:102E9000883023F44003616E0B43C2F8883000276A
:102EA00014E001273E4611E05B4AD36843F48033C7
:102EB000D3600026EAE700210430FFF76BFE0646E8
:102EC000002EE3D0374601E000273E46236813F486
:102ED000805F21D0A36EB3F1007F79D00ED8002B94
:102EE0007CD0B3F1807F06D1002104F12000FFF7F0
:102EF00009FF064605E001273E460DE0B3F1407F9D
:102F000063D1002E70D1444AD2F8883023F0407348
:102F1000A16E0B43C2F88830236813F4003F00F021
:102F200084803D4B9B6D13F0805F5FD13A4B9A6D6F
:102F300042F080529A659B6D03F080530193019B90
:102F40004FF00108354A136843F480731360FEF7AD
:102F500069FC0546314B1B6813F4807F05D1FEF7F1
:102F600061FC401B0228F5D90326002E58D12A4BBC
:102F7000D3F8903013F4407316D0D4F884209A42DA
:102F800012D0254AD2F8903023F44073D2F8901032
:102F900041F48031C2F89010D2F8901021F48031C1
:102FA000C2F89010C2F8903013F0010F21D1002E1A
:102FB00040F03981184AD2F8903023F44073D4F8A5
:102FC00084100B43C2F890302BE001273E46A3E764
:102FD000114AD36843F48033D36092E70021201D67
:102FE000FFF7D8FD06468CE7374695E74FF0000817
:102FF000A8E7FEF717FC0546074BD3F8903013F00F
:10300000020FD4D1FEF70EFC401B41F288339842E8
:10301000F2D90326CBE700BF001002400070004049
:103020003746B8F1000F40F00081236813F0010F1C
:1030300008D09D4AD2F8883023F00303A16B0B43DC
:10304000C2F88830236813F0020F08D0964AD2F8ED
:10305000883023F00C03E16B0B43C2F888302368FF
:1030600013F0040F08D0904AD2F8883023F03003D0
:10307000216C0B43C2F88830236813F0080F08D086
:10308000894AD2F8883023F0C003616C0B43C2F840
:103090008830236813F0100F08D0834AD2F88830A4
:1030A00023F44073A16C0B43C2F88830236813F0FB
:1030B000200F08D07C4AD2F8883023F44063E16CBA
:1030C0000B43C2F88830236813F4007F08D0764A97
:1030D000D2F8883023F44023E16D0B43C2F88830E6
:1030E000236813F4806F08D06F4AD2F8883023F435
:1030F0004013216E0B43C2F88830236813F0400F51
:1031000008D0694AD2F8883023F44053216D0B432C
:10311000C2F88830236813F0800F08D0624AD2F8D2
:10312000883023F44043616D0B43C2F88830236834
:1031300013F4807F08D05C4AD2F8883023F44033FF
:10314000A16D0B43C2F88830236813F4005F0FD0E1
:10315000554AD2F8883023F04063E16E0B43C2F841
:103160008830E36EB3F1006F65D0B3F1806F67D044
:10317000236813F4002F0FD04B4AD2F8883023F085
:103180004063216F0B43C2F88830236FB3F1006FA7
:103190005ED0B3F1806F60D0236813F4802F0FD01E
:1031A000414AD2F8883023F04063616F0B43C2F884
:1031B0008830636FB3F1006F57D0B3F1806F59D08F
:1031C000236813F4804F0FD0374AD2F8883023F0A9
:1031D0004053A16F0B43C2F88830A36FB3F1805FF7
:1031E00050D0B3F1005F55D0236813F4004F08D0DE
:1031F0002D4AD2F8883023F08043E16F0B43C2F8A8
:103200008830236813F4803F09D0274AD2F88830E9
:1032100023F00043D4F880100B43C2F888303846BE
:1032200002B0BDE8F0813746FBE61F4A936D23F0FC
:1032300080539365F9E6D36843F48013D36097E72E
:103240000121201DFFF7A6FC002891D007468FE73B
:10325000D36843F48013D3609EE70121201DFFF75C
:1032600099FC002898D0074696E7D36843F480136A
:10327000D360A5E70121201DFFF78CFC00289FD01B
:1032800007469DE70221201DFFF784FC0028ABD0F4
:103290000746A9E7022104F12000FFF733FD0028CB
:1032A000A2D00746A0E700BF001002402DE9F0477A
:1032B00082B00546884617461E46FEF7B3FA0A9BBB
:1032C0001B1A03EB0609FEF7ADFA82462A4B1B6870
:1032D000C3F3CB3309FB03F301932B689C6838EAF3
:1032E00004030CBF01240024BC4240D0B6F1FF3FD0
:1032F000F3D0FEF797FAA0EB0A0048450AD2B9F1DD
:10330000000F07D0019A02B14A46019B013B01938D
:103310009146E2E72A68536823F0E00353606B6844
:10332000B3F5827F0BD0AB6AB3F5005F14D00123F5
:1033300085F85D30002385F85C30032018E0AB6829
:10334000B3F5004F02D0B3F5806FECD12A68136853
:1033500023F040031360E6E72A68136823F4005360
:1033600013602A68136843F400531360DFE70020FA
:1033700002B0BDE8F08700BF000000202DE9F04753
:1033800082B007460D4616469846FEF74BFA0A9B52
:103390001B1A03EB0809FEF745FA82462D4B1B6802
:1033A00003EB8303C3EBC3031B0D09FB03F301937F
:1033B00002E0B8F1FF3F0BD13B689C682C40B4425F
:1033C00044D0B5F5C06FF4D1002EF2D11B7BF0E7ED
:1033D000FEF728FAA0EB0A0048450AD2B9F1000F1F
:1033E00007D0019A02B14A46019B013B01939146E5
:1033F000E2E73A68536823F0E00353607B68B3F573
:10340000827F0BD0BB6AB3F5005F14D0012387F82D
:103410005D30002387F85C30032018E0BB68B3F50B
:10342000004F02D0B3F5806FECD13A68136823F0F7
:1034300040031360E6E73A68136823F4005313600F
:103440003A68136843F400531360DFE7002002B0CA
:10345000BDE8F0870000002070B582B004460D463C
:10346000164600920B4600224FF4C051FFF786FF2C
:10347000B0B900962B46002280212046FFF716FFA8
:10348000A8B900962B4600224FF4C0612046FFF7F2
:1034900075FF50B1236E43F020032366032004E040
:1034A000236E43F020032366032002B070BD236E19
:1034B00043F0200323660320F7E700286AD010B505
:1034C0000446436A33B94368B3F5827F05D00023CD
:1034D000C36102E00023036143610023A36294F807
:1034E0005D30002B4DD0022384F85D3022681368D4
:1034F00023F040031360E368B3F5E06F47D900227F
:10350000B3F5706F04D0B3F5E06F01D00023A36270
:10351000636803F48273A16801F404410B432169D9
:1035200001F002010B43616901F001010B43A16944
:1035300001F400710B43E16901F038010B43216A8A
:1035400001F080010B43A16A01F4005120680B4394
:103550000360638B03F00403616A01F010010B4305
:10356000616B01F008010B43E16801F470610B43EA
:10357000216813434B6000202066012384F85D30EE
:1035800010BD84F85C302046FDF7BCFDABE74FF47E
:103590008052B5E7012070472DE9F8431F46089D8A
:1035A00090F85C30012B00F0648104468846914617
:1035B000012380F85C30FEF735F9064694F85D305B
:1035C000DBB26268012B0AD0B2F5827F40F038810D
:1035D000A268002A40F03D81042B40F03C81B8F104
:1035E000000F00F03A81B9F1000F00F03881002F90
:1035F00000F0378194F85D30DBB2042B02D0052354
:1036000084F85D3000232366C4F84090A4F8467027
:10361000A4F84470C4F83880E787A787E36423657B
:10362000E368B3F5E06F01D8012F23D9226853680E
:1036300023F48053536023681A6812F0400F03D1BB
:103640001A6842F040021A60E368B3F5E06F58D997
:1036500063680BB1012F0BD1A26B23681288DA606B
:10366000A36B0233A363E38F9BB2013B9BB2E3875F
:10367000012725E02268536843F480535360DAE75A
:1036800023689A6812F0010F11D0B4F8462092B264
:103690006AB1DA68236C1A80236C02332364B4F8AD
:1036A00046309BB2013B9BB2A4F846300127FEF79F
:1036B000B9F8831BAB4203D3B5F1FF3F40F0D38091
:1036C000E38F9BB22BB9B4F846309BB2002B00F0CD
:1036D000AD8023689A6812F0020FD1D0E28F92B2C7
:1036E000002ACDD0002FCBD0A26B1288DA60A36B5A
:1036F0000233A363E38F9BB2013B9BB2E3870027B6
:10370000BEE763680BB1012F0FD1E38F9BB2012B92
:103710000DD9A26B23681288DA60A36B0233A3630E
:10372000E38F9BB2023B9BB2E387012749E0A26B88
:10373000236812781A73A36B0133A363E38F9BB2E0
:10374000013B9BB2E387F0E7E28F92B2012A0CD9EA
:10375000A26B1288DA60A36B0233A363E38F9BB280
:10376000023B9BB2E38700273DE0A26B12781A73FD
:10377000A36B0133A363E38F9BB2013B9BB2E3874F
:10378000002730E02268536843F4805353600127D8
:103790000DE0226C1B7B1370236C01332364B4F89F
:1037A00046309BB2013B9BB2A4F846300127FEF79E
:1037B00039F8801BA84202D3B5F1FF3F55D1002D47
:1037C00055D0E38F9BB223B9B4F846309BB2002B9F
:1037D0002CD023689A6812F0020F04D0E28F92B2C4
:1037E0000AB1002FB0D123689A6812F0010FDED021
:1037F000B4F8462092B2002AD9D0B4F8462092B24A
:10380000012AC6D9DA68236C1A80236C0233236438
:10381000B4F846309BB2023B9BB2A4F84630B4F8F1
:1038200046309BB2012BADD90127C0E7324629466D
:103830002046FFF711FE20B120232366012000E07F
:103840000220012384F85D30002384F85C30BDE859
:10385000F8830220F5E70220F3E70120F1E70120D9
:10386000EFE70120EDE70320EBE70320E9E7032082
:10387000E7E70220EBE70000DFF834D0FDF7E8FCD3
:10388000002103E00B4B5B58435004310A480B4BBB
:1038900042189A42F6D30A4A02E0002342F8043B57
:1038A000084B9A42F9D300F017F8FDF701FBFEE749
:1038B00000800120506C000800000020E80100207A
:1038C000E8010020C0100020FEE70000014B18684E
:1038D000704700BF1800002070B50D4D0D4C641BE3
:1038E000A4100026A64209D10B4D0C4C02F0C4FED8
:1038F000641BA4100026A64205D170BD55F8043BF8
:1039000098470136EEE755F8043B98470136F2E751
:10391000406C0008406C0008406C0008446C0008D3
:103920000A44914200F1FF3300D1704710B511F8FD
:10393000014B03F8014F9142F9D110BD02440346F7
:10394000934200D1704703F8011BF9E72DE9FF47C7
:1039500055EC104B002D0E4619462B46BBBF05F10A
:1039600000431D4600232D230B700D9BDDF830A076
:10397000914623F02008BCBF22461446B8F1460FFA
:1039800005D0B8F1450F00D10136022100E0032136
:1039900003AB019302AB009345EC104B5346324608
:1039A00000F0FAFCB8F1470F074602D119F0010FF9
:1039B00022D0B8F1460F07EB060910D13B78302B27
:1039C0000AD10022002320462946FDF77DF818B9C8
:1039D000C6F10106CAF80060DAF800309944002206
:1039E000002320462946FDF76FF808B1CDF80C906A
:1039F0003022039B4B4507D3039B0E9ADB1B3846B3
:103A0000136004B0BDE8F087591C03911A70F0E709
:103A1000F7B503460029B8BF494203F8022BB4BFEB
:103A20002D222B22092942702ADD0DF10704A4461C
:103A30000A27A6460A4691FBF7F607FB161530350E
:103A4000632A04F1FF340EF8015C3146F1DC3031B9
:103A5000AEF1020504F8011C441C294661450AD355
:103A60000DF10902A2EB0E02654588BF0022134446
:103A7000181A03B0F0BD11F8012B04F8012FEDE77F
:103A8000302330318370C170031DF1E72DE9F04F11
:103A90002DED028B8DB00C46DDF8608016461F467A
:103AA000054601F065FAD0F800A05046FCF790FBFF
:103AB00000230A9323680593D8F8003094F818B0CF
:103AC000073323F0070303F10802C8F80020D3E905
:103AD0000023C4E91223D4E9128929F00043079393
:103AE000CDF8188008EE100A9F4BDDE906014FF073
:103AF000FF32FDF71BF888BBDDE906019A4B4FF05A
:103B0000FF32FCF7F5FF48BB002200234046494640
:103B1000FCF7E4FF10B12D2384F84330934B944815
:103B2000BBF1470F94BF9846804603232361059B52
:103B300023F0040222604FF00009009733460BAADD
:103B40002146284600F0D8F9013040F090804FF02F
:103B5000FF300DB0BDEC028BBDE8F08F42464B4606
:103B600040464946FCF7E2FF40B14B46002BBCBF44
:103B70002D2384F843307F487F4BD1E763680BF0F7
:103B8000DF0206925A1C3FD106236360059B6168E1
:103B900043F48062002303930AABCDE901B309AB80
:103BA00049EC108B009322600DF123032846FFF7A8
:103BB000CDFE069B0999472B804608D1C81C02DB25
:103BC0006368994241DDABF1020B5FFA8BFBBBF1FD
:103BD000650F20D801395A4604F150000991FFF7CA
:103BE00017FF0A9A1318012A8146236102DC226812
:103BF000D20701D5013323619DF82330002B9CD0DF
:103C00002D2384F8433098E7069A472ABED1002B2B
:103C1000BCD10123B9E7BBF1660F18D10029636855
:103C20000BDD216113B92268D00702D501330B44A3
:103C30002361A1654FF00009DEE713B92268D207BE
:103C400001D50233F4E70123F2E74FF0670B0A9B3B
:103C5000994205DB23682161D807EAD54B1CE7E7C9
:103C60000029D4BFC1F1020201221344E0E7236816
:103C70005A0507D42369424631462846B8470130E1
:103C80002CD164E7BBF1650F40F2E080D4E912016A
:103C900000220023FCF718FF002834D0374A012304
:103CA00031462846B84701303FF451AFDDE90923DA
:103CB0009A4202DB2368D80710D518EE103A524614
:103CC00031462846B84701303FF441AF4FF0000875
:103CD00004F11A090A9B013B434509DC23689B0751
:103CE00000F10581E0680B9B9842B8BF184630E7A9
:103CF00001234A4631462846B84701303FF427AFF2
:103D000008F10108E6E7099B002B39DC1B4A012377
:103D100031462846B84701303FF419AFDDE90923A1
:103D2000134302D12368D907D8D518EE103A52466A
:103D300031462846B84701303FF409AF4FF000093B
:103D400004F11A0A099B5B424B4501DC0A9B92E78E
:103D50000123524631462846B84701303FF4F7AEBA
:103D600009F10109EEE700BFFFFFEF7F5C68000883
:103D70006068000868680008646800086C680008EB
:103D80000A9AA36D9A42A8BF1A46002A914637DCC8
:103D90004FF0000B29EAE97904F11A02A36D0593AB
:103DA000A3EB09035B4533DCDDE909239A423BDBE6
:103DB0002368DA0738D40A9A059B0999D31AA2EB2B
:103DC00001099945A8BF9946B9F1000F35DC4FF0BC
:103DD000000829EAE97904F11A0ADDE909239B1AA6
:103DE000A3EB090343457FF779AF012352463146E0
:103DF0002846B84701303FF4AAAE08F10108ECE7C5
:103E00001346314642462846B8470130C0D19EE6A7
:103E10000123314628460592B84701303FF497AE5A
:103E2000059A0BF1010BB9E718EE103A52463146EC
:103E30002846B8470130BED189E6059A4B46424430
:103E400031462846B8470130C1D180E60A9A012A96
:103E500001DCDB0738D50123424631462846B84706
:103E600001303FF474AE18EE103A524631462846FF
:103E7000B84701303FF46BAED4E9120100220023B1
:103E8000FCF722FED8B90A9B08F10102013B31463A
:103E90002846B84701300ED159E601235246314633
:103EA0002846B84701303FF452AE08F101080A9B9A
:103EB000013B4345F1DC4B4604F15002DCE64FF098
:103EC000000804F11A0AF2E701234246DFE7012362
:103ED0004A4631462846B84701303FF438AE08F12B
:103EE0000108E3680B995B1A4345F0DCFAE64FF0F2
:103EF000000804F11909F4E72DE9F0471646994640
:103F00008A680B69DDF820809342B8BF134633609E
:103F100091F8432007460C460AB101333360236809
:103F2000990642BF336802333360256815F00605F1
:103F300006D104F1190AE36832689B1AAB4226DC09
:103F400094F84320131E226818BF012392062BD435
:103F500004F1430249463846C04701301ED0236869
:103F6000E568326803F00603042B08BFAD1AA368A6
:103F700022690CBF25EAE57500259342C4BF9B1A50
:103F8000ED1800261A34B5421AD1002008E00123AA
:103F9000524649463846C047013003D14FF0FF3002
:103FA000BDE8F0870135C6E7E1185A1C302081F8DA
:103FB0004300224494F8451082F843100233C7E7C7
:103FC0000123224649463846C0470130E6D0013633
:103FD000D9E700002DE9FF470C469146277E0C9952
:103FE000782F80469A4604F1430207D8622F0AD8F8
:103FF000002F00F0D880582F00F0A38004F1420673
:1040000084F842703AE0A7F16303152BF6D801A0BB
:1040100050F823F06D40000881400008FD3F000883
:10402000FD3F0008FD3F0008FD3F000881400008FB
:10403000FD3F0008FD3F0008FD3F0008FD3F000870
:104040008D410008B14000086F410008FD3F0008A5
:10405000FD3F0008AF410008FD3F0008B1400008E7
:10406000FD3F0008FD3F0008774100080B681A1D5E
:104070001B680A6004F1420684F842300123A3E081
:10408000256808682E0600F104030AD505680B6050
:10409000002D03DA2D236D4284F843305E480A2355
:1040A00019E015F0400F05680B6018BF2DB2EFE75F
:1040B0000B682568181D0860280601D51D6802E0F8
:1040C0006906FBD51D8854486F2F0CBF08230A23AF
:1040D000002184F843106668A660002EA2BF216804
:1040E00021F0040121600DB9002E4DD01646B5FB1C
:1040F000F3F103FB1157C75D06F8017D2F46BB4264
:104100000D46F4D9082B0BD12368DF0708D52369A6
:1041100061689942DEBF302306F8013C06F1FF36A4
:10412000921B2261CDF800A04B4603AA21464046CF
:10413000FFF7E2FE01304CD14FF0FF3004B0BDE894
:10414000F087354884F8457023680E681F0656F8D6
:10415000045B0E6014D5D90744BF43F020032360ED
:104160001DB9236823F0200323601023B0E72368E0
:1041700043F0200323607823284884F84530E3E7A0
:104180005E0648BFADB2E6E71646BBE70B68266899
:1041900060691D1D0D6035061B6801D5186002E0C1
:1041A0007106FBD51880002323611646BAE70B6819
:1041B0001A1D0A601E68626800213046FCF710F87C
:1041C00008B1801B606063682361002384F843307A
:1041D000A8E72369324649464046D0470130ABD074
:1041E00023689B0713D4E068039B9842B8BF184626
:1041F000A4E70123324649464046D04701309BD0D0
:104200000135E36803995B1AAB42F2DCEBE700256A
:1042100004F11906F5E700BF6E6800087F68000822
:104220000EB400B59CB01DAB029006906FF000413B
:10423000094807910491094953F8042B0591006836
:10424000019302A901F034FB029B00221A701CB0FA
:104250005DF804EB03B07047180000200802FFFF70
:1042600010B50246147813460132002CFAD1013BF6
:1042700011F8012B03F8012F002AF9D110BD2DE907
:10428000F74F03690C69A3420746C0F28180013CE5
:1042900001F1140800F1140505EB8403019358F8AB
:1042A000243055F8242001339A424FEA840B08EB5E
:1042B0008409B2FBF3F631D34FF0000E4046AC4612
:1042C000F24650F8042B93B206FB03E34FEA134E79
:1042D0009BB2AAEB0303120CDCF800A006FB02E27F
:1042E00013FA8AF34FEA124E1FFA82FADCF8002022
:1042F000CAEB124202EB23429BB243EA02438145DE
:104300004CF8043B4FEA224ADBD255F80B302BB96C
:10431000019B043B9D421A462ED33C61384601F076
:10432000B1F8002824DB013628464FF0000C58F87D
:10433000042BD0F800E093B2ACEB0303120C13FA99
:104340008EF3C2EB1E4202EB23429BB243EA0243CE
:10435000C14540F8043B4FEA224CE8D255F82420EE
:1043600005EB840322B9043B9D421A460AD33C6103
:10437000304603B0BDE8F08F1268043B002ACCD170
:10438000013CC7E71268043B002AF0D1013CEBE78F
:104390000020EEE7000000002DE9F04F2DED028B2C
:1043A00057EC106B95B0456ADDF880800591CDE93A
:1043B0000267044609920F9375B9102000F0DCFDE6
:1043C0000246606220B9B24BEA21B24801F080FB9C
:1043D000C0E901550560C560636A196851B15A6842
:1043E0004A60012393408B60204600F00DFE636A13
:1043F00000221A603B1EB9BF23F000430393002341
:10440000C8F80030DDF80C90A34BBCBF0122C8F8FF
:10441000002033EA09031BD10F9A42F20F73136095
:10442000C9F31303334300F07A85219B63B99B4B97
:1044300024E09B4B00930833219A1360009815B039
:10444000BDEC028BBDE8F08F944B00930333F3E790
:104450009DED027B002251EC170B00238DED0A7BB2
:10446000FCF732FB804658B10F9A01231360219B61
:10447000002B00F051858B481860431E0093DDE748
:104480009DED0A0B12AA13A9204601F09FF8C9F36B
:104490000A558346002D7CD00B9BCDF84080C3F39A
:1044A0001303DDE90A6743F07F5747F44017A5F28D
:1044B000FF357D4B002230463946FBF7E5FE6EA303
:1044C000D3E90023FCF798F86DA3D3E90023FBF7A9
:1044D000DDFE064628460F46FCF724F86AA3D3E91A
:1044E0000023FCF789F802460B4630463946FBF7B5
:1044F000CDFE06460F46FCF72FFB00228246002326
:1045000030463946FCF7EAFA48B15046FCF70AF85B
:1045100032463B46FCF7D8FA08B90AF1FF3ABAF13D
:10452000160F54D8614B03EBCA03D3E90023DDE92E
:104530000A01FCF7D3FA00284BD00AF1FF3A002316
:104540000E93129B5D1B6B1E049343BF0023C5F1AA
:10455000010804934FF00008BAF1000F3BDB049B05
:10456000CDF834A05344049300230693059B092BF4
:1045700069D8052BC4BF043B0593059BA3F1020337
:10458000CCBF00250125032B69D8DFE803F02C4EB2
:104590004C5ADDE912531D4405F23243202BC1BFB2
:1045A000C3F1400305F2124009FA03F326FA00F0C2
:1045B000DABFC3F1200306FA03F01843FBF7A2FFAA
:1045C00001230646A1F1F877013D109371E701231D
:1045D000B6E70E90B5E7CAF1000306930023A8EBF7
:1045E0000A080D93C2E700230893099B002B39DCCE
:1045F0004FF00109CDF804904B46CDF82490606A45
:1046000000224260042202F114069E4241682FD922
:10461000204600F0B9FC009000284BD1244B024604
:104620004FF4D571D1E60123DEE700230893099BFF
:104630000AEB030909F10103012B0193B8BF012320
:10464000DDE70123F2E701250023059308954FF0EC
:10465000FF390022CDF8049012230992CFE70123FD
:104660000893F4E7DDF82490CDF804904B46C6E7B4
:10467000013141605200C6E761436F63A787D23FB3
:10468000B3C8608B288AC63FFB799F501344D33F41
:104690009D680008B46800080000F07F9968000871
:1046A000906800086D6800080000F83FB0690008D5
:1046B00013690008636A009A1A60019B0E2B00F2CE
:1046C000AD80002D00F0AA80BAF1000F36DDC34A9C
:1046D0000AF00F0302EBC30393ED007B1AF4807F13
:1046E0004FEA2A17B0EE478AF0EE678A16D0BC4B25
:1046F000DDE90A01D3E90823FCF7A8F8CDE90201B6
:1047000007F00F070325B64E57B9DDE9020153EC58
:10471000182BFCF79BF8CDE9020129E00225F2E70E
:10472000F90708D551EC180BD6E90023FBF764FF15
:1047300041EC180B01357F100836E5E700F0A68044
:10474000CAF10006A54BA64F06F00F0203EBC20309
:10475000D3E90023DDE90A01FBF74EFFCDE90201B1
:10476000361100230225002E40F08580002BD2D187
:104770000E9B002B00F08C80DDE90267994B002234
:1047800030463946FCF7AAF9002800F08180019BE9
:10479000002B7DD0B9F1000F3CDD0AF1FF33079308
:1047A0000022914B30463946FBF726FFCDE9020146
:1047B0000135CDF83090DDE902672846FBF7B2FEFF
:1047C00032463B46FBF718FF884B0022FBF75EFDA5
:1047D000A1F15073CDE9020103930C9B002B5CD136
:1047E000834B002230463946FBF74EFDDDE90223BC
:1047F00006460F46FCF790F9002840F09682DDE966
:104800000221304601F100433946FCF767F90028E0
:1048100040F08882DDE90A23CDE90223139B002BB7
:10482000C0F25881BAF10E0F00F354816B4B03EBC9
:10483000CA03D3E90089099B002B80F2E380019B26
:10484000002B00F3DF8040F06D82694B0022404670
:104850004946FBF7D1FEDDE90223FCF753F9019E3F
:104860003746002840F04382009D312305F8013B84
:104870000AF1010A3FE2F20705D5D7E90023FBF769
:10488000BBFE01350123761008376CE702256FE780
:10489000019BCDF81CA00C938DE700990C980C9A05
:1048A0004E4B9DED027B014402910899B0EE478A80
:1048B000F0EE678A03EBC20353E90223002945D0D7
:1048C0004C490020FBF7C2FF53EC182BFBF7DCFC34
:1048D000009D41EC180B39463046FCF73DF90C9031
:1048E000FBF720FE02460B4630463946FBF7CCFC70
:1048F0000C9B303305F8013B53EC182B06460F4652
:10490000FCF7ECF8002865D132463B4635490020DB
:10491000FBF7BAFC53EC182BFCF7E0F8002840F04A
:10492000B980029B9D423FF475AF2F4B51EC180BA1
:104930000022FBF761FE2C4B41EC180B00223046A5
:104940003946FBF759FE06460F46C4E751EC170BF4
:10495000FBF752FE029B009D0C9341EC180B39466D
:104960003046FCF7F9F81190FBF7DCFD02460B46E8
:1049700030463946FBF788FC119B303305F8013B84
:10498000029B9D4206460F464FF0000234D1194B60
:1049900051EC180BFBF77AFC02460B4630463946C1
:1049A000FCF7BAF8002875D153EC182B11490020F8
:1049B000FBF76AFC02460B4630463946FCF78EF898
:1049C00000283FF427AF0C9D6B1E0C9315F8013C9B
:1049D000302BF8D0DDF81CA04AE000BFB069000819
:1049E000886900080000F03F0000244000001C40DF
:1049F000000014400000E03FAF4BFBF7FDFD064612
:104A00000F46ACE7DDE90267009D42464B46304663
:104A10003946FBF71BFFFCF79FF80290FBF782FD7E
:104A200042464B46FBF7E8FD02460B463046394608
:104A3000FBF72AFC029E019F303605F8016B009EB1
:104A4000AE1BB74202460B4637D1FBF71FFC42466E
:104A50004B4606460F46FCF75FF8C8B942464B4640
:104A600030463946FCF730F810B1029BD9070FD415
:104A70002046594600F0C8FA00232B700F9B0AF11C
:104A800001001860219B002B3FF4D8AC1D60D5E4D9
:104A9000CDF81CA02B461D4613F8012D392A08D14C
:104AA000009A9A42F7D1079A009901320792302270
:104AB0000A701A7801321A708CE77F4B0022FBF7DC
:104AC0009BFD0022002306460F46FBF7FDFF002852
:104AD0009BD0CDE7089A002A00F0C480059A012AED
:104AE00000F3A880109A002A00F0A08003F233435C
:104AF000069E4546049A01211A4420469844049291
:104B000000F03EFB0746002D0BDD049B002B08DD6B
:104B1000AB42049AA8BF2B46A8EB0308ED1AD31AA0
:104B20000493069BFBB1089B002B00F09F80002E96
:104B300011DD39463246204600F0DEFB5A4601467A
:104B40000746204600F032FB59460790204600F009
:104B50005BFA079B9B46069B9A1B04D0594620464E
:104B600000F0CAFB83460121204600F009FB0D9BA3
:104B7000002B06467CDD1A460146204600F0BCFBB1
:104B8000059B012B064676DD00230693336906EB71
:104B90008303186900F0A4FAC0F12000049B1844B4
:104BA00010F01F0000F08680C0F12003042B7FDD91
:104BB000C0F11C00049B0344804405440493B8F1F5
:104BC000000F05DD59464246204600F0EFFB8346C4
:104BD000049B002B05DD31461A46204600F0E6FB1B
:104BE00006460E9B002B69D03146584600F04AFC21
:104BF000002863DA002359460A22204600F026FAEC
:104C0000089B0AF1FF3A8346002B00F08F8139465A
:104C100000230A22204600F019FAB9F1000F0746D6
:104C200000F38E80059B022B50DC89E0129BC3F1C0
:104C300036035DE7019B5E1E069BB342BFBF069B2A
:104C40000696F21A0D9BB6BF9B189E1B0D93019BF7
:104C5000B8BF0026002BB5BFA8EB0305019B0023BE
:104C6000454647E7069E089F45464CE7069A75E786
:104C7000059B012B18DC029BB3B9039BC3F3130301
:104C8000A3B9039B23F000431B0D1B052BB1049B11
:104C90000133049308F10108012306930D9B002BB7
:104CA0007FF474AF012079E70023F6E7029BF4E775
:104CB00085D018461C307DE700002440019B002B66
:104CC00038DC059B022B35DDDDF80490B9F1000FCF
:104CD0000DD131464B460522204600F0B7F901467A
:104CE0000646584600F0CEFB00283FF7BDAD099BB5
:104CF000009D6FEA030A4FF000083146204600F09D
:104D000083F9002F3FF4B4AEB8F1000F05D0B845D9
:104D100003D04146204600F077F93946204600F09E
:104D200073F9A5E600263746E1E70C9EDDF81CA0E6
:104D3000374699E5089BDDF80490002B00F0FD80D4
:104D4000002D05DD39462A46204600F02FFB074698
:104D5000069B002B5CD07968204600F015F90546CB
:104D600028B9804B024640F2EA21FFF72EBB3A6990
:104D70000232920007F10C010C30FEF7D1FD012246
:104D80002946204600F012FB009B01330193009B53
:104D90004B440793029B03F00103B8460693074672
:104DA000019B3146013B58460293FFF768FA0346E0
:104DB0003033049041465846089300F063FB3A466E
:104DC00081463146204600F079FBC268089B0546C3
:104DD00002BB0146584600F055FB089B0246294697
:104DE0002046CDE9083200F00FF9059B099A019D94
:104DF00043EA0201069B0B43089B0DD1392B29D0B6
:104E0000B9F1000F01DD049B3133029A137074E78E
:104E10003846B9E70122E2E7B9F1000F06DB059950
:104E200041EA0909069959EA010120D1002AECDD7D
:104E3000594601222046019300F0B8FA31468346D4
:104E400000F020FB0028019B02DCDED1DA07DCD574
:104E5000392BD8D1029A392313702B461D46013BBA
:104E600015F8012C392A50D001321A7045E7002A72
:104E700003DD392BEED00133C7E7019A079902F819
:104E8000013C8A422AD0594600230A22204600F0DB
:104E9000DDF8B84583464FF000034FF00A02414663
:104EA000204607D100F0D2F880460746019B013327
:104EB000019375E700F0CAF83946804600230A22BC
:104EC000204600F0C3F80746F0E7B9F1000F009A5A
:104ED000CCBF4D46012515444FF00008594601222C
:104EE0002046019300F062FA3146834600F0CAFA88
:104EF0000028B2DC02D1019BDB07AED42B461D4655
:104F000013F8012D302AFAD0F7E6009A9A42A5D17B
:104F10000AF1010A312379E7134BFFF7AFBA219B5E
:104F2000002B7FF486AA114BFFF7A8BAB9F1000F46
:104F300003DC059B022B3FF7C9AE009D3146584666
:104F4000FFF79DF900F1300305F8013B009AAA1A1A
:104F50009145BADD594600230A22204600F076F832
:104F60008346EBE7136900086C6800089068000846
:104F7000004870476C010020024B0146186800F0A1
:104F8000E1BB00BF1800002070B5466A04460D461C
:104F900076B91020FFF7F0FF0246606220B9184B87
:104FA0001848662100F094FDC0E901660660C660FD
:104FB000666AF36883B1636ADB6853F82500B8B9A1
:104FC000012101FA05F6721D9200204600F05AFBFD
:104FD00060B1C0E901560EE021220421204600F014
:104FE00051FB636AF060DB68002BE4D1002070BDE8
:104FF000026843F825200023C0E90333F7E700BF28
:105000009D6800082469000870B5466A05460C468C
:1050100076B91020FFF7B0FF0246686220B9094B4D
:1050200009488A2100F054FDC0E901660660C660A7
:105030003CB16B6A6268DB6853F82210216043F868
:10504000224070BD9D680008246900082DE9F041E8
:105050000E69074698460C4601F1140000230568C6
:10506000A9B202FB01814FEA114C2D0C02FB05C5D0
:1050700089B2013301EB05419E4240F8041B4FEA1F
:105080001548ECDCB8F1000F22D0A368B34219DC5C
:10509000616838460131FFF777FF054628B90246B7
:1050A0000D4B0E48B52100F013FD2269023204F1C8
:1050B0000C0192000C30FEF733FC21463846FFF716
:1050C000A3FF2C4604EB86030136C3F81480266147
:1050D0002046BDE8F08100BF13690008246900087C
:1050E000030C1B04D3B90004102310F07F4F04BF3E
:1050F0000002083310F0704F04BF0001043310F0B9
:10510000404F04BF80000233002805DB10F0804FC1
:1051100003F1010308BF2023184670470023E4E78A
:10512000036813F0070201460BD0DA0724D498076E
:1051300049BF5B089B0801200B605CBF0B6002202D
:10514000704798B2B0B91B0C102013F0FF0F04BFCA
:105150001B0A08301A0704BF1B0904309A0704BF52
:105160009B080230DA0703D45B0800F1010005D088
:105170000B6070471046E8E700207047202070471A
:1051800010B50C460121FFF7FFFE024628B9054B7A
:1051900005484FF4A07100F09BFC012344610361BA
:1051A00010BD00BF13690008246900082DE9F04F05
:1051B00014460A6923699A42B8BF0B460D46BCBF24
:1051C00025461C46D5F810A0D4F81090AB68696845
:1051D0000AEB0907BB4285B0B8BF0131FFF7D4FE27
:1051E00030B90246424B434840F25D1100F070FC7A
:1051F00000F1140606EB87083346002243451ED310
:1052000005F1140C04F114030CEB8A0C03EB890276
:105210000292ACEB0502153A22F00302043205F1CA
:1052200015018C4538BF04220192029A03939A42D9
:1052300008D8002F55DC076105B0BDE8F08F43F8B2
:10524000042BDBE7B3F800A0BAF1000F20D005F182
:10525000140EB14600225EF8044BD9F800B0A1B29A
:105260001FFA8BFB0AFB01B11144D9F80020240C72
:10527000120C0AFB042404EB114489B241EA0441F4
:10528000F44549F8041B4FEA1442E4D801997250DE
:10529000039AB2F802900433B9F1000F1FD03468BA
:1052A00005F11401B6464FF0000A0A88BEF802B0B4
:1052B00009FB02B29244A4B244EA0A444EF8044BF9
:1052C00051F8044BBEF80020240C09FB042404EB25
:1052D0001A448C454FEA144AE7D8019AB450043670
:1052E000A3E758F8043D002BA5D1013FA1E700BF7B
:1052F00013690008246900082DE9F843154612F0E7
:10530000030206460F4607D0254C013A002354F805
:105310002220FFF79BFE0746AD103DD0746A7CB992
:105320001020FFF729FE0246706228B91D4B1E4867
:105330004FF4D77100F0CCFBC0E901440460C460B5
:10534000D6F82480D8F808404CB940F27121304694
:10535000FFF716FF0023C8F80800044603604FF06B
:105360000009EB070AD5394622463046FFF71EFFF3
:10537000394680463046FFF747FE47466D100BD052
:10538000206838B9224621463046FFF70FFF2060DB
:10539000C0F800900446E4E73846BDE8F88300BF53
:1053A000786A00089D680008246900082DE9F04724
:1053B0000C464968236903EB6218A36807469146C7
:1053C0004FEA621A08F10106B3420BDB3846FFF7D9
:1053D000DBFD054648B90246284B294840F2D91161
:1053E00000F076FB01315B00EEE7002300F11401D1
:1053F00000F110021846534533DB20692AEAEA7AA5
:1054000004F1140319F01F0901EB8A0103EB800C6E
:105410002BD0C9F1200E8A460022186800FA09F044
:1054200002434AF8042B53F8042B9C4522FA0EF24F
:10543000F3D8ACEB0403153B23F00303043304F16E
:105440001500844538BF0423CA500AB108F102068A
:10545000013E38462E612146FFF7D6FD2846BDE8BD
:10546000F08742F8040F0133C5E7043953F8042BE1
:1054700041F8042F9C45F9D8EAE700BF13690008FA
:105480002469000830B502690C69121B0ED100F1C5
:105490001403143103EB840001EB840150F8045D24
:1054A00051F8044DA54203D005D30122104630BD6A
:1054B0008342F3D3FAE74FF0FF32F7E72DE9F84FD5
:1054C0000C460646114620461746FFF7DBFF051E31
:1054D00010D129463046FFF757FD30B9394B024607
:1054E00040F23221384800F0F3FA0123C0E90435D4
:1054F000BDE8F88FA4BF3B46274630467968A6BF73
:105500001C4600250125FFF73FFD20B92D4B024623
:105510004FF41071E6E73E69C560256907F1140193
:1055200004F1140900F1140E07F1100201EB860CCE
:1055300009EB8505F246002759F8043B52F804BFF1
:105540001FFA83F817FA8BF71B0CA7EB0808C3EBBD
:105550001B4303EB28431FFA88F81F144D4548EA04
:1055600003434AF8043BE7D82B1B153B23F0030306
:1055700004331534A54238BF0423194473449E46AE
:105580000D4665450ED30CF10302521A22F00302B8
:1055900003398C4538BF00221A4452F8043D7BB1D0
:1055A0000661A5E755F8048B17FA88F4221402EB7C
:1055B0001842A4B244EA02444EF8044B1714E0E740
:1055C000013EEAE713690008246900082DE9F74362
:1055D0008946012157EC106B9046FFF7D5FC044635
:1055E00030B90246254B264840F20A3100F070FAE5
:1055F000C7F30A55C7F3130335BB002E019328D018
:1056000068460096FFF78CFD009900B3019AC0F13F
:10561000200302FA03F30B43C24063610192019B32
:10562000A361002B14BF022201222261D5B1A5F291
:1056300033450544C9F80050C0F13500C8F80000F2
:10564000204603B0BDE8F08343F48013D5E76161E1
:10565000E5E701A8FFF764FD019B63610122226178
:105660002030E3E704EB8203A0F23240C9F80000E7
:105670001869FFF735FDC0EB4210DFE7136900083A
:105680002469000813B54A431146019200F05AF804
:10569000044618B1019A0021FEF750F9204602B0E5
:1056A00010BD000037B5002948D051F8043C0190E6
:1056B000002BA1F10404B8BFE41800F065FA204AF9
:1056C00001981368154633B96360146003B0BDE8F0
:1056D000304000F05FBAA3420BD9216862189342B0
:1056E00004BF1A685B68636004BF521822602C60B4
:1056F000ECE71A465B680BB1A342FAD9116855185A
:10570000A5420BD1246821445418A3421160DDD175
:105710001C685B68536021441160D7E702D90C23F1
:105720000360D3E7256861198B4204BF19685B6881
:10573000636004BF491921605460C7E703B030BDFE
:105740002C020020F8B5CD1C25F0030508350C2DE2
:1057500038BF0C25002D064601DBA94203D90C23D6
:1057600033600020F8BD00F00FFA21490A681446A2
:105770009CB9204F3B6823B92146304600F098F988
:1057800038602946304600F093F9431C23D10C239E
:105790003360304600F0FEF9E3E723685B1B17D463
:1057A0000B2B03D923601C44256004E06368A242EC
:1057B0000CBF0B605360304600F0ECF904F10B00B5
:1057C000231D20F00700C21ACCD01B1AA350C9E732
:1057D00022466468CCE7C41C24F00304A042E3D052
:1057E000211A304600F064F90130DDD1CFE700BF67
:1057F0002C020020300200202DE9F0478E689E42E6
:1058000082460C4690461F4638D88A8912F4906F1B
:1058100032D025680969A5EB0109656905EB4505E5
:1058200005EBD57501334B446D109D4238BF1D46C5
:10583000530531D52946FFF785FF064650B90C239D
:10584000CAF80030A38943F04003A3814FF0FF3032
:10585000BDE8F08721694A46FEF762F8A38923F480
:10586000906343F08003A381266165614E44A5EBFC
:1058700009052660A5603E46BE4200D93E46324636
:105880002068414600F066F9A36822689B1B3244F9
:10589000A36022600020DBE72A4600F081F906467B
:1058A0000028E1D121695046FFF7FCFEC7E7000060
:1058B0002DE9F04F98468B891B069DB007460D4693
:1058C00014460ED50B6963B94021FFF73BFF2860F2
:1058D000286120B90C233B604FF0FF30D1E040231A
:1058E0006B610023099320238DF82930CDF80C80BB
:1058F0003023DFF8A8818DF82A304FF001092346C4
:105900009A4613F8012B0AB1252AF9D1BAEB040BF8
:105910000BD05B46224629463846FFF76DFF013023
:1059200000F0AA80099A5A4409929AF80030002B94
:1059300000F0A28000234FF0FF32CDE905230AF1E9
:10594000010A049307938DF853301A9354460522A5
:1059500014F8011B5148FAF743FC049AD8B9D00651
:1059600044BF20238DF85330110744BF2B238DF8FB
:1059700053309AF800302A2B15D0079A544600204D
:105980004FF00A0C214611F8013B303B092B4ED950
:10599000B0B1079214E0A0EB080309FA03F3134334
:1059A0000493A246D2E7039B191D1B680391002BA9
:1059B000BBBF5B4242F0020207930793B8BF049259
:1059C00023782E2B0CD163782A2B35D1039B1A1DFB
:1059D0001B680392002BB8BF4FF0FF3302340593CE
:1059E000DFF8C8A0217803225046FAF7F9FB40B14E
:1059F0004023A0EB0A0003FA00F0049B03430134A8
:105A0000049314F8011B26488DF828100622FAF793
:105A1000E7FB002838D0234B1BBB039B073323F045
:105A2000070308330393099B3344099367E70CFB8F
:105A300002320C460120A5E70023013405931946E4
:105A40004FF00A0C204610F8012B303A092A03D9EE
:105A5000002BC5D00591C3E70CFB012104460123AF
:105A6000F0E703AB00932A460F4B04A93846FEF734
:105A70000DF8421C0646D6D1AB895B063FF52CAF2C
:105A800009981DB0BDE8F08F03AB00932A46064B82
:105A900004A93846FEF79EFAEBE700BF846A0008C7
:105AA0008E6A00088D3A0008F95700088A6A0008D3
:105AB00038B5064D0023044608462B60FBF79EFBD5
:105AC000431C02D12B6803B1236038BDB010002005
:105AD0001FB514461A46094B1B680546D8684CB1D9
